:020000040800F2
:10000000B81500200D02000897350008D129000816
:100010009535000813030008B93C000800000000F3
:1000200000000000000000000000000095360008FD
:100030007D0500080000000099350008973600088B
:1000400027020008270200082702000827020008EC
:1000500027020008270200082702000827020008DC
:1000600027020008270200082702000827020008CC
:100070006503000871030008270200082702000832
:100080007D030008890300082702000827020008F2
:10009000AD3C0008270200082702000827020008DC
:1000A000270200082702000827020008270200088C
:1000B000FD36000809370008153700082702000838
:1000C000270200082702000827020008270200086C
:1000D00027020008113C00081D3C0008653C000890
:1000E000270200082702000827020008270200084C
:1000F000270200082702000827020008270200083C
:1001000027020008270200082137000827020008FC
:1001100031380008793800082D3700082702000818
:10012000270200082702000895030008A103000821
:1001300000F002F800F05AF80AA090E8000C82449F
:100140008344AAF10107DA4501D100F04FF8AFF27C
:10015000090EBAE80F0013F0010F18BFFB1A43F0A5
:100160000103184730680000506800000A444FF04F
:10017000000C10F8013B13F0070408BF10F8014B06
:100180001D1108BF10F8015B641E05D010F8016B4B
:10019000641E01F8016BF9D113F0080F1EBF10F8AF
:1001A000014BAD1C0C1B09D16D1E58BF01F801CBD2
:1001B000FAD505E014F8016B01F8016B6D1EF9D555
:1001C0009142D6D37047000000230024002500266A
:1001D000103A28BF78C1FBD8520728BF30C148BFAA
:1001E0000B6070471FB51FBD10B510BD00F05CF867
:1001F0001146FFF7F7FF03F08DFE00F07AF803B425
:10020000FFF7F2FF03BC00F07DF8000009488047CB
:1002100009480047FEE7FEE7FEE7FEE7FEE7FEE7E8
:10022000FEE7FEE7FEE7FEE704480549054A064B00
:1002300070470000F936000831010008B80F0020AF
:10024000B8150020B8110020B81100204FF00002AE
:1002500000B5134694469646203922BFA0E80C50BC
:10026000A0E80C50B1F12001BFF4F7AF090728BF97
:10027000A0E80C5048BF0CC05DF804EB890028BF13
:1002800040F8042B08BF704748BF20F8022B11F03C
:10029000804F18BF00F8012B7047704770477047B8
:1002A00000487047540F00207546FFF7F9FFAE462F
:1002B00005006946534620F00700854618B020B572
:1002C000FFF7B2FFBDE820404FF000064FF00007F7
:1002D0004FF000084FF0000B21F00701AC46ACE8EE
:1002E000C009ACE8C009ACE8C009ACE8C0098D465B
:1002F000704710B50446AFF300802046BDE81040BB
:10030000FFF77DBF01491820ABBEFEE726000200C3
:100310007047FEE700B58BB00020012101900290EC
:1003200003900590CDE90601009004900E200891FD
:10033000099069460A4800F09BF908B100F01FF9DE
:10034000074800F0D3FC08B100F019F90221044875
:1003500000F017F9002801D000F011F90BB000BD32
:1003600034070020014800F0AFBD00001C0E002043
:10037000014800F0A9BD0000D80D0020014800F0A0
:10038000A3BD0000500D0020014800F09DBD0000FD
:10039000940D0020014800F097BD0000C80C00201B
:1003A000014800F091BD00000C0D002030B590F820
:1003B00040500124AC40C56B6C60046863604368C6
:1003C000102B036803D099600068C26030BD9A604A
:1003D0000068C16030BD00000D4A30B411780020C3
:1003E00001290FD10B490B78232B08D10A4C0B4B59
:1003F00002E0255C1D54401C0D78A842F9DB00206A
:100400000870107030BCC8220349054802F04EBA8B
:1004100011010020100100201C0900200803002009
:10042000400C00200D4A30B41178002001290FD172
:100430000B490B78232B08D10A4C0B4B02E0255CAF
:100440001D54401C0D78A842F9DB00200870107084
:1004500030BCC8220349054802F028BA1301002025
:1004600012010020E4090020D0030020840C0020A9
:100470000D4A30B41178002001290FD10B490B78B7
:10048000232B08D10A4C0B4B02E0255C1D54401C69
:100490000D78A842F9DB00200870107030BCC8222B
:1004A0000349054802F002BA15010020140100209A
:1004B000AC0A002098040020740B002030B50178AD
:1004C000242953D1817A542937D1C17A41294DD178
:1004D00081780279303901EBC10303EB011102EBA2
:1004E0008102C17801EB8103214901EB43031344ED
:1004F000204A13604379C479303B03EBC30505EB15
:10050000031304EB8303847904EB840401EB4404B8
:1005100023445360037A847A303B03EBC30505EB35
:10052000031304EB8303447A04EB840401EB4401DA
:10053000194491600178242918D1817A512915D163
:10054000C17A412912D142780B49303A0A70827837
:10055000303A4A70C278303A8A700279303ACA70BA
:100560004279303A0A7180793038487130BD0000E4
:10057000F0FDFFFFF806002024000020704772B64F
:10058000FEE790F82020012A07D0022A05D0416A10
:1005900041F48021416201207047006842690A43AA
:1005A000426100207047F0B590F820500468A468BC
:1005B000012D05D0022D03D0416A41F4802153E082
:1005C00014F0406F01D1E5004BD5C4F30164022C57
:1005D00003D9416A41F4000146E00125A5401D60B0
:1005E0008D684FF4C0739DB1CE6835434E6845EABF
:1005F000C605066803EB0417F5514FF4C27507688A
:1006000005EB04150E697E51097D012905D009E02D
:100610000E88CD6845EA4655EBE701684E5946F429
:1006200080764E511179D2F805504FF4C67641EAE2
:100630000525016806EB04168D511178D2F80120CA
:100640004FF4C47541EA0221026805EB04155151CB
:10065000006803EB0411425842F0010242500020AE
:10066000F0BD416A41F4001141620120F0BD00007B
:1006700010B590F820300268012B07D0022B05D06E
:10068000416A41F480214162012010BDD2F800028C
:1006900040F00100C2F80002087D00F01F030120B5
:1006A0009840D2F81C328343C2F81C32CB69B3B9EC
:1006B000D2F80C328343C2F80C328C894B6864F355
:1006C0001F434C6902EBC404C4F840320C890B6828
:1006D00064F31F434C6902EBC404C4F84432CB6991
:1006E000012B16D1D2F80C320343C2F80C320C881D
:1006F0004B6864F31F434C6902EBC404C4F84032F6
:100700000C89CB6864F31F434C6902EBC404C4F842
:1007100044328B69002BD2F804320FD053EA000325
:10072000C2F804320B69002BD2F8143208D003430C
:10073000C2F81432096A012904D008E08343EFE7C4
:100740008343F5E7D2F81C120143C2F81C12D2F819
:10075000000220F00100C2F80002002010BD704726
:1007600030B590F82040012C05D0022C03D0416A0E
:1007700041F480215DE00468002955D02469A40774
:1007800054D04FF4D874056804EB01142D5915F0BA
:100790000405956005682D594ED0ED085560056833
:1007A0002C5904F00204D4604FF4DA74056804EBA9
:1007B00001142D5905F00F05156105682D59C5F374
:1007C0000725956105682C59240C54614FF4DC729F
:1007D000046802EB0112A4581C700468A458240A8F
:1007E0005C700468A458240C9C700468A258120E13
:1007F000DA704FF4DE72046802EB0112A4581C7127
:100800000468A458240A5C710468A458240C9C71E0
:100810000468A258120EDA71006881B1016941F0D2
:1008200020010161002030BDE468A8E7416A41F47D
:1008300000114162012030BD6D0D1560AFE7C16848
:1008400041F02001C160EDE72DE9F05F0546006849
:1008500000244669D0F804908768D0F80CB0D0F82E
:1008600010A0D0F81880F10748D0F90714D0012162
:100870008160B80703D5284600F065FA0CE07807D8
:1008800002D54FF4006407E0380702D54FF48054D6
:1008900002E0284600F056FAF80516D529684FF40C
:1008A00080708860B80503D5284600F04EFA0CE049
:1008B000780502D544F4005407E0380502D544F425
:1008C000804402E0284600F03FFAF80316D5296874
:1008D0004FF480308860B80303D5284600F037FA1B
:1008E0000CE0780302D544F4004407E0380302D555
:1008F00044F4803402E0284600F028FA300707D597
:100900005FEACB6004D52968102044F40074C86005
:1009100070074FF0080707D55FEA0B7004D5286809
:10092000C760284600F066F9B00706D52868C06899
:10093000800702D0284600F05FF9700607D55FEA0D
:10094000CA6004D52968102044F480640861B006A8
:1009500007D55FEA0A7004D528680761284600F0C9
:10096000C1F9F00606D528680069800702D028463C
:1009700000F0B9F9B00308D55FEAC96005D5296868
:1009800010204860284600F0AFF9F00307D55FEA71
:10099000097004D528684760284600F0D9F930046A
:1009A00046D55FEA497040D5F00504D55FEAC870C6
:1009B00001D044F00104B00504D55FEA887001D588
:1009C00044F00204700504D55FEA487001D544F094
:1009D0000404300529D518F0700F26D008F07000F7
:1009E000402815D006DC102809D020280AD030284D
:1009F00016D10AE050280ED0602811D10EE044F044
:100A000008040DE044F010040AE044F0200407E07C
:100A100044F0400404E044F0800401E044F48074B5
:100A20002868816921F0700181612968042048608B
:100A3000002C05D0686A204368622846FFF78FFEC5
:100A4000BDE8F09F70B5040003D094F8200010B109
:100A500004E0012070BD204600F082F820680168A3
:100A600041F00101016000F0DDFC0546052604E0CF
:100A700000F0D8FC401B0A2811D820684068C00745
:100A8000F6D02068016821F00201016000F0CAFC84
:100A900005460BE000F0C6FC401B0A2806D9606A38
:100AA00040F40030606284F82060D2E7206840683B
:100AB0008007EFD4207E0128206801683DD021F016
:100AC00080010160607E01282068016838D021F033
:100AD00040010160A07E01282068016833D021F028
:100AE00020010160E07E0128206801682ED041F0DD
:100AF00010010160207F01282068016829D021F0C1
:100B000008010160607F01282068016824D021F07D
:100B100004010160D4E902010843D4E9041211433D
:100B200008436168491E08432168C861002060626B
:100B3000012084F82000002070BD41F08001C0E752
:100B400041F04001C5E741F02001CAE721F0100162
:100B5000CFE741F00801D4E741F00401D9E70000F4
:100B600010B586B0002100910191029103910068B7
:100B70001C49884233D11C48C16941F00071C161F0
:100B8000C16901F000710491816941F0080181613E
:100B90008069164C00F0080004904FF480700090BB
:100BA0006946204600F03CFB601500900220019051
:100BB000032003906946204600F032FB0C48416850
:100BC00021F4C04141F0E06141F4804141600022E4
:100BD0001146142000F092FC142000F081FC06B0B5
:100BE00010BD00000064004000100240000C0140F5
:100BF000000001407047000070B588B00446022133
:100C0000FFF7BFFC324B6A4600212046FFF7A8FDE4
:100C1000019A304830492E4CA2F17F63213B05D127
:100C20002288A2F5FA420280A2880A80019AA2F1E3
:100C30007F63223B05D12288A2F5FA424280A28836
:100C40004A80019AA2F17F63233B05D12288A2F555
:100C5000FA428280A2888A80019AA2F17F63243BB3
:100C600005D12288A2F5FA42C280A088C8800198E6
:100C70001A4D1B4EA0F17F61313905D1207803F068
:100C800007FD2860207830600198A0F17F6132393B
:100C900005D1207803F0FCFC686020787060019832
:100CA000A0F17F61333905D1207803F0F1FCA86011
:100CB0002078B0600198A0F17F61343905D12078A7
:100CC00003F0E6FCE8602078F06008B070BD00003A
:100CD00008010020EC000020FC0000202002002081
:100CE00030020020704770477047000070B504461E
:100CF00090F82000012804D0606A40F4002060626F
:100D000018E0022084F820002068016821F0010129
:100D1000016000F087FB05460EE000BF00F082FB9B
:100D2000401B0A2808D9606A40F400306062052040
:100D300084F82000012070BD20684068C007EDD114
:100D4000606270BD7047704770477047704770476A
:100D5000704710B590F821100022022905D0042117
:100D6000816380F82020012010BD01680B6823F00A
:100D70000E030B6001680B6823F001030B6090F811
:100D80004030C46B012101FA03F3636080F8211045
:100D900080F82020104610BD2DE9F05F90F821105A
:100DA0000024022903D004218163012485E0016825
:100DB0000A6822F00E020A6001680A6822F0010245
:100DC0000A603F4E3E4FB215DFF8F4C0DFF8F090F6
:100DD000DFF8ECA0DFF8E8B0DFF8E4E00168783F86
:100DE00013011502ACF1640CA9F15009AAF13C0AF7
:100DF000ABF1280BAEF1140E4FF48018B14227D995
:100E0000B9420ED0614512D049451DD0514518D088
:100E1000594518D0714501D1424615E0294EB142DD
:100E200001D1012210E0274E1436B14201D1102227
:100E30000AE0244E2836B14206D0224A3C32914282
:100E400001D11A4600E02A461E49091F0A602BE01C
:100E5000B94213D0614517D0494522D051451DD024
:100E600059451DD0714501D142461AE0B14202D127
:100E70004FF0807215E0134EB14201D1012210E013
:100E8000104E1436B14201D110220AE00D4E283620
:100E9000B14206D00B4A3C32914201D11A4600E0E1
:100EA0002A46074980394A60012180F82110002133
:100EB00080F82010416B01B188472046BDE8F09FC3
:100EC00080000240080402402DE9F05FC16B0A680F
:100ED00001680B68046C4FF0040808FA04F8844DAC
:100EE000844E854FDFF814C2DFF81492DFF814A2A5
:100EF000DFF814B2DFF814E218EA020F65D05FEAF7
:100F0000437862D50A68920603D40A6822F0040284
:100F10000A60DFF8F0814FF48062016808F114087C
:100F200013011402414524D9A9420DD0B1420FD07A
:100F3000B9421AD0614515D0494515D0514501D166
:100F4000120312E0594501D104220EE0714501D18E
:100F500040220AE06D4D1435A94206D06B4A283272
:100F6000914201D11A4600E022466749091F0A60F2
:100F700029E0A94213D0B14215D0B94220D0614531
:100F80001BD049451BD0514502D14FF4800217E0D8
:100F9000414502D14FF0806212E0594501D104224F
:100FA0000EE0714501D140220AE0584D1435A942A6
:100FB00006D0564A2832914201D11A4600E0224614
:100FC0004B4908394A60C16A71E04FF0020808FADB
:100FD00004F818EA020F70D05FEA83786DD50A68CA
:100FE000920606D40A6822F00A020A60012180F8FB
:100FF0002110DFF810814FF40072016808F1140825
:1010000013011402414524D9A9420DD0B1420FD099
:10101000B9421AD0614515D0494515D0514501D185
:10102000120312E0594501D102220EE0714501D1AF
:1010300020220AE0354D1435A94206D0334A283221
:10104000914201D11A4600E022462F49091F0A6049
:1010500029E0A94213D0B14215D0B94220D0614550
:101060001BD049451BD0514502D14FF4001217E067
:10107000414502D14FF0007212E0594501D10222E0
:101080000EE0714501D120220AE0204D1435A9421D
:1010900006D01E4A2832914201D11A4600E022466B
:1010A000134908394A60002180F82010816A00291C
:1010B0001CD0BDE8F05F0847FFE70825A5401542B2
:1010C00014D01A0712D50A6822F00E020A6090F8AE
:1010D0004020C36B012101FA02F25A60816380F85B
:1010E0002110002180F82010016BE0E7BDE8F09F9F
:1010F000080002401C000240300002404400024050
:10110000580002406C000240080402401C040240E7
:1011100030B560B11A4B026814219A4209D2194BBA
:101120001344B3FBF1F18900016417490AE001207F
:1011300030BD134B5B421344B3FBF1F189000164F2
:101140000F490839C163022180F82110136843F662
:10115000F0718B43F0E901142143D0E902452C439F
:10116000214304692143446921438469214319438C
:10117000116000214163012242770177084630BDAA
:1011800008040240F8FFFDBF0000024070B50446AD
:1011900090F82000002501280CD0012084F82000C0
:1011A00094F821600020012E06D084F8200002254A
:1011B000284670BD022070BD022684F82160A0631D
:1011C0002068066826F0010606602046FFF7EEF864
:1011D000E06A00282068016802D041F00E0106E0B4
:1011E00021F0040101602068016841F00A010160FA
:1011F0002068016841F001010160D9E770B504463B
:1012000000F010F90546601C02D004480078044440
:1012100000F008F9401BA042FAD370BD1C01002069
:101220002DE9F84FDFF8C891002409F1040A0AF10A
:10123000040B23460F270BF1040ED1E00125A54036
:1012400006EA0502AA4276D1DFF8A8C14E68A6EBED
:101250000C0866452BD00DDC032E34D005DC36B3EC
:10126000012E19D0022E2FD11BE0112E16D0122ED6
:101270002AD119E0B8F5881F19D006DCB8F5803FEF
:1012800015D0B8F5801F1FD111E0B8F5001F0ED0A2
:10129000B8F5041F18D10AE0CB6815E0CB681B1D18
:1012A00012E0CB6808330FE0CB680C330CE08B689E
:1012B0002BB1012B4FF0080303D0456104E0042358
:1012C00002E0056100E00023FF2A01D8064601E0A4
:1012D00000F104064FEA840501D9A5F12005D6F8EE
:1012E000008007FA05FC28EA0C0803FA05F548EA2D
:1012F0000508C6F800804D68ED0070D53E4DAE691A
:1013000046F00106AE61AD6924F0030605F0010563
:1013100000953A4D06EB050CDCF80850A607360F91
:1013200007FA06F825EA0805DFF8D480404503D11E
:101330004FF0000825E052E0DFF8C880404502D1B8
:101340004FF001081DE0DFF8C080404502D14FF0AA
:10135000020816E0DFF8B480404502D14FF00308E0
:101360000FE0DFF8AC80404502D14FF0040808E000
:10137000DFF8A080404502D14FF0050801E04FF0B2
:10138000060808FA06F848EA0508CCF808804D680F
:10139000D9F80060ED034D4601D5164300E09643B1
:1013A0002E604D68DAF80060AD03554601D516434E
:1013B00000E096432E604D68DBF80060ED025D466C
:1013C00001D5164300E096432E604D68DEF80060BC
:1013D000AD02754601D5164300E096432E60641CAD
:1013E0000A681646E2407FF429AFBDE8F88F000096
:1013F00000040140000011100010024000000140F4
:1014000000080140000C01400010014000140140A0
:1014100000180140001C01400AB101617047090435
:10142000FBE7000001488068704700001C010020B5
:101430000248816802781144816070471C010020D5
:10144000074810B5016841F010010160032000F069
:1014500075F80F2000F006F800F024F8002010BD09
:101460000020024070B50D4D04464FF47A71287883
:10147000B1FBF0F00A490968B1FBF0F000F071FC33
:1014800048B9102C07D200222146501E00F036F831
:1014900000206C6070BD012070BD00001C010020A8
:1014A000280100200C4808B5816941F001018161E3
:1014B000816901F001010091C16941F08051C16170
:1014C000C06900F0805000900448416821F0E0615C
:1014D00041F00071416008BD001002400000014071
:1014E000002809DB00F01F02012191404009800023
:1014F00000F1E020C0F8001170470000F0B40E4B7E
:101500001B680C46C3F30223C3F10705042D00D961
:101510000425191D072901D2002300E0DB1E012646
:1015200006FA05F1491E214099409E40761E16405C
:101530003143F0BC02F0C1BB0CED00E0064900F005
:10154000070208684FF6FF03184040EA0220034AEA
:1015500010430860704700000CED00E00000FA0541
:101560002DE9F0470F46050061D0434E306800F08A
:101570000700B84209D2306820F0070038433060D5
:10158000306800F00700B84251D128683B4C810711
:1015900012D5400703D5606840F4E06060602878A9
:1015A000000703D5606840F4605060606068A96817
:1015B00020F0F000084360602878C00728D06868F1
:1015C000012810D02168022810D0890700292EDABE
:1015D000616821F0030101436160FFF723FF80464A
:1015E00041F288390DE021688903EFE78901EDE7D1
:1015F000FFF718FFA0EB0801494502D90320BDE819
:10160000F0876068696800F00C00B0EB810FEFD1E3
:10161000306800F00700B8420BD9306820F00700AE
:1016200038433060306800F00700B84201D0012034
:10163000E5E72878400705D56068E96820F4E060B0
:10164000084360602878000706D56068296920F49F
:10165000605040EAC100606000F038F86168084AF4
:10166000C1F30311515CC840064908600648006890
:10167000FFF7F8FE0020C2E7002002400010024001
:101680007A6900082801002020010020044805494B
:1016900000684968044AC1F30221515CC8407047A0
:1016A00028010020001002408A690008044805490A
:1016B00000684968044AC1F3C221515CC8407047C0
:1016C00028010020001002408A69000812A185B09C
:1016D0000FC98DE80F0014A0144A006804905168E7
:1016E000134801F00C03042B10D0082B0ED1C1F3CA
:1016F0008343C9031DF803000AD5516804AAC1F346
:101700004041515C0A4A5043B0FBF1F005B07047CC
:1017100008494843FAE700000203040506070809E0
:101720000A0B0C0D0E0F10100102000000100240F9
:1017300000127A0000093D002DE9F84F040070D036
:101740002078C04DC00749D06868C0F381000128E7
:1017500007D06868C0F38100022809D16868C00317
:1017600006D52868800339D560680028E7D035E0C1
:101770006068B0F5803F0BD010B1B0F5A02F11D04C
:10178000286820F480302860286820F4802002E057
:10179000286840F480302860606890B1FFF742FE0E
:1017A00006460AE0286840F480202860F0E700BF81
:1017B000FFF738FE801B642873D828688003F7D5AC
:1017C0000CE0FFF72FFE064605E000BFFFF72AFEFC
:1017D000801B6428F0D828688003F7D420789A4EBC
:1017E00080074FF001094FF0000839D5686810F004
:1017F0000C0F07D06868C0F38100022809D168681F
:10180000C00306D42868800714D52069012808D1B0
:1018100010E02069B0B1C6F80090FFF703FE07465C
:1018200005E00AE1FFF7FEFDC01B0228C4D82868C6
:101830008007F7D52868616920F0F80040EAC10008
:1018400028600DE0C6F80080FFF7ECFD074604E0D5
:10185000FFF7E8FDC01B022823D828688007F7D4CB
:10186000207800072CD57948A169D9B1C0F800903B
:10187000FFF7D8FD074604E0FFF7D4FDC01B0228A0
:101880000FD8686A8007F7D571484FF4FA5100689D
:10189000B0FBF1F0009000BF0098411E0091FAD219
:1018A0000EE080E0C0F80080FFF7BCFD074604E0D2
:1018B000FFF7B8FDC01B022875D8686A8007F7D407
:1018C0002078400760D5E8690027C00008D4E8699F
:1018D00040F08050E861E869012700F080500090F6
:1018E0005C480168C90513D40168834641F48071DE
:1018F0000160FFF797FD824606E000BFFFF792FD0B
:10190000A0EB0A0064284ED8DBF80000C005F5D52E
:10191000E06801280AD008B1052813D0286A20F011
:1019200001002862286A20F0040002E0286A40F0E2
:1019300001002862E06841F2883B98B1FFF772FD30
:1019400082460BE0286A40F004002862EEE700BF00
:10195000FFF768FDA0EB0A0159455AD8286A8007AD
:10196000F6D50CE0FFF75EFD824605E0FFF75AFD75
:10197000A0EB0A0159454CD8286A8007F6D41FB15C
:10198000E86920F08050E861E06988B36968C1F3D4
:101990008101022944D00228C6F8608004D0FFF7F4
:1019A00041FD044638E034E0FFF73CFD074604E023
:1019B000FFF738FDC01B02282BD828688001F7D418
:1019C000206AB0F5803F05D16868A16820F4003036
:1019D00008436860D4E908010843696821F4741178
:1019E00008436860C6F86090FFF71CFD044606E0F7
:1019F00025E000BFFFF716FD001B022809D8286864
:101A00008001F7D51BE000BFFFF70CFD001B02288B
:101A100002D90320BDE8F88F28688001F4D40EE0D5
:101A20000128F7D06868226A00F48031914204D11D
:101A3000616A00F47010884201D00120EAE70020BA
:101A4000E8E70000001002400000424280044242E9
:101A5000280100200070004070B5040009D0606AC1
:101A6000002540B125616561A56294F8510040B13F
:101A70000CE0012070BD6068B0F5827FF4D0E561B4
:101A8000F2E784F85050204600F040F8022084F835
:101A900051002068016821F040010160A08821897F
:101AA00000F4827001F404410843A18901F400614B
:101AB0000843217C01F002010843217D01F001016E
:101AC0000843218B01F400710843217F01F03801A4
:101AD000084394F8201001F080010843218D01F49F
:101AE0000051084321680860A069042101EA104000
:101AF000216848602068C16921F40061C1616565A1
:101B0000012084F85100002070BD000030B585B080
:101B100000240094019402940394006815498842BB
:101B200025D11548C16941F48041C161C16901F401
:101B300080410491816941F00801816180690F4D04
:101B400000F0080004904FF4204000900220019023
:101B50000320039069462846FFF762FB4FF480405C
:101B6000CDE90004694628460294FFF759FB05B009
:101B700030BD00000038004000100240000C014061
:101B80002DE9F84F044690F8500000270A9E1D46A4
:101B900092468B464FF0010901280ED0012084F8AF
:101BA0005000FFF73FFC804694F85100616801281F
:101BB0000CD0B1F5827F07D102E00220BDE8F88F9A
:101BC000A16809B9042801D00227C2E0BBF1000FC7
:101BD00027D0BAF1000F24D01DB394F85100042887
:101BE00002D0052084F8510000206065C4F838A0B8
:101BF000E587A587C4F830B0E586A58620646064D3
:101C000020680168490603D4016841F04001016081
:101C1000E068B0F5006F606805D0E8B3012D46D0EC
:101C20007FE0012795E008B1012D39D1206B2168B3
:101C30000088C860206B801C2063E08E401EE08618
:101C40002EE02068816889070FD5E18E69B1B9F16E
:101C5000010F0AD1216B0988C160206B801C2063B1
:101C6000E08E401EE0864FF0000920688168C907B9
:101C70000CD0E18F51B1C068A16B0880A06B801CB3
:101C8000A063E08F401EE0874FF00109FFF7CAFB19
:101C9000A0EB0800B04200E009E001D3701C50D175
:101CA000E08E0028CDD1E08F0028CAD13FE0206B24
:101CB000216800780873206B401C2063E08E401E72
:101CC000E0862EE02068816889070FD5E18E69B132
:101CD000B9F1010F0AD1216B09780173206B401C07
:101CE0002063E08E401EE0864FF000092068816886
:101CF000C9070CD0E18F51B1C068A16B0870A06B0F
:101D0000401CA063E08F401EE0874FF00109FFF701
:101D100089FBA0EB0800B04202D3701C01D010E098
:101D20007EB1E08E0028CDD1E08F0028CAD1424696
:101D30003146204601F042FC28B101272020606591
:101D400007E0032705E0A06818B92068C16880682B
:101D50000090012084F85100002084F8500038469B
:101D60002CE710B5401EB0F1807F01D3012010BDDB
:101D70004FF0E02460610F21601701F09EFF00200A
:101D8000A06107202061002010BD7047704700004F
:101D900070B590F83C20012A2CD0012480F83C40FA
:101DA000022280F83D2003685A689D6822F0700680
:101DB0000A6832435A60104B02689A420ED00F4BA9
:101DC0009A420BD0B2F1804F08D00D4B9A4205D009
:101DD0000C4B9A4202D00C4B9A4204D1496825F030
:101DE00080031943916080F83D40002180F83C1049
:101DF000084670BD022070BD002C01400034014037
:101E00000004004000080040000C004010B5040031
:101E100003D094F83D0010B107E0012010BD002070
:101E200084F83C00204600F01FF8022084F83D00B2
:101E3000211D206801F080FC012084F8460084F810
:101E40003E0084F83F0084F8400084F8410084F8A4
:101E5000420084F8430084F8440084F8450084F884
:101E60003D00002010BD000008B501682F48B1F109
:101E7000804F11D02E4A91421DD1C16941F002011B
:101E8000C161C069002200F00200009011461D20CF
:101E9000FFF734FB1D2043E0C16941F00101C1613E
:101EA000C069002200F00100009011461C20FFF7DD
:101EB00025FB1C2034E01F4A91420ED1C16941F03C
:101EC0000401C161C069002200F0040000901146C5
:101ED0001E20FFF713FB1E2022E0174A91420ED16D
:101EE000C16941F00801C161C069002200F0080029
:101EF000009011463220FFF701FB322010E00F4A1C
:101F0000914211D1C16941F01001C161C069002243
:101F100000F01000009011463620FFF7EFFA36204F
:101F2000BDE80840FFF7DCBA08BD00000010024021
:101F30000004004000080040000C00400010004079
:101F400090F83D10012901D001207047022180F84E
:101F50003D100168CA6842F00102CA6000680E497B
:101F600088420ED00D4988420BD0B0F1804F08D086
:101F70000B49884205D00B49884202D00A49884261
:101F800004D1816801F00701062903D0016841F0FE
:101F90000101016000207047002C01400034014025
:101FA0000004004000080040000C00400168CA68BE
:101FB00022F00102CA6001680A6A41F211131A4252
:101FC00007D10A6A9B101A4203D10A6822F0010263
:101FD0000A60012180F83D100020704770B504466A
:101FE00090F83C00012817D0012584F83C500220CD
:101FF00084F83D002068826822F0770222F47F4254
:1020000082600868502830D00DDC20284DD005DCD7
:1020100098B310283BD148E0022070BD302844D04E
:10202000402834D139E0602828D0702806D0B0F597
:10203000805F2CD0B0F5005F29D10AE0CB68D1E9F0
:102040000121206801F0BEFB2068816841F0770122
:1020500009E0CB68D1E90121206801F0B3FB2068D9
:10206000816841F48041816011E0CA684968206854
:1020700001F0BAFB5021206807E016E0CA68496801
:10208000206801F0C2FB6021206801F0A5FB84F804
:102090003D50002084F83C0070BDCA684968206843
:1020A00001F0A2FB40212068EFE7226801461046BC
:1020B000EBE7704770B50446006801694FF0000512
:1020C000C943890715D4C168C943890711D4E91EDA
:1020D000016101202077206880698007204602D0B6
:1020E000FFF7E7FF04E000F098F8204600F096F8CC
:1020F000257720680169C943490717D4C168C943D6
:10210000490713D46FF00401016102202077206891
:10211000806910F4407F204602D0FFF7CAFF04E038
:1021200000F07BF8204600F079F8257720680169F7
:10213000C943090716D4C168C943090712D46FF00F
:1021400008010161042020772068C06980072046CB
:1021500002D0FFF7AEFF04E000F05FF8204600F089
:102160005DF8257720680169C943C90617D4C1689D
:10217000C943C90613D46FF010010161082020770C
:102180002068C06910F4407F204602D0FFF791FF1D
:1021900004E000F042F8204600F040F8257720687F
:1021A0000169C943C90708D1C168C943C90704D136
:1021B000891E0161204600F033F820680169C94397
:1021C000090609D4C168C943090605D46FF0800126
:1021D00001612046FFF7D9FD20680169C94349061E
:1021E00009D4C168C943490605D46FF040010161B3
:1021F000204600F051F820680169C94389060BD4D4
:10220000C168C943890607D46FF0200101612046E7
:10221000BDE87040FFF7BABD70BD70477047000061
:1022200070B504461748184D844202D1E86802F0A0
:1022300089FB1648844207D1FEF7CEF8FEF7F2F884
:10224000FEF716F902F0E8FA1148844211D1286924
:102250000021401C0C4A286140320D4602F10C035B
:1022600052F82160864201D143F82150491C0329CC
:10227000F6DB0848844203D1BDE8704001F008BE97
:1022800070BD0000B407002010000020FC070020F3
:10229000440800208C0800207047704710B50446A1
:1022A0000068416994F83D20C1F3C011212A0BD187
:1022B00051B1416921F080014161606B08B1FEF7C5
:1022C00048FD204601F05DFB2068416994F83E20FE
:1022D000C1F38011222A0BD151B1416921F0400193
:1022E0004161A06B08B1FEF734FD204601F031FBDF
:1022F000002010BD70470000F8B502680446106861
:10230000D168536910F00F0F4FF0000553D003F060
:10231000010601F4907737435FD0C20705D0CA05A4
:1023200003D5226C42F001022264420705D5DA0788
:1023300003D0226C42F002022264820705D5DA073C
:1023400003D0226C42F004022264020707D501F098
:102350002002324303D0226C42F008022264226C35
:10236000002A34D0800604D5880602D5204601F024
:1023700011FB20684069216CC0F38010090700D46C
:1023800030B3204601F0E5FA2068416949061BD5C3
:10239000416921F040014161A06BA8B158494163F6
:1023A000A06BFEF7F9FC002811D0A06B416B01B0C7
:1023B000BDE8F040084783060FD58B060DD52046B3
:1023C000BDE8F84001F0E6BA2046FFF793FFF8BDFC
:1023D0002046FFF78FFF2564F8BD266B2023012ED2
:1023E00052D1C60650D5CE064ED510685068009022
:1023F000506940062AD5A16B086840680004000CAB
:10240000EAD0A68D8642E7D9E0858869202818D0D1
:10241000D06820F48070D0602068416921F001010B
:1024200041612068416921F04001416184F83E30FA
:1024300025632068C16821F01001C160A06BFEF720
:1024400088FCA08DE18D401A81B219E0A08DE18D4C
:10245000401A81B2E08D0028BED00029BCD0D068DF
:1024600020F49070D0602068426922F0010242613D
:1024700084F83E3025632068C26822F01002C260F2
:102480002046FFF70AFFF8BD05062BD50D0629D516
:1024900094F83D002128F6D1A068B0F5805F01D105
:1024A0002069B0B1206A411C21622168007848602F
:1024B000E08C401E0004000CE084E4D12068C16878
:1024C00021F08001C1602068C16841F04001C16015
:1024D000F8BD206A0088C0F308005060206A801CA4
:1024E0002062E5E74006F3D54806F1D5D1682046DD
:1024F00021F04001D16084F83D3000F068FAF8BD69
:102500008538000870B5040004D094F83D0000251B
:1025100010B106E0012070BD84F83C50204600F068
:1025200023F8242084F83D002068C16821F400517C
:10253000C160204601F08AFA2068016921F49041C7
:1025400001612068416921F02A0141612068C16868
:1025500041F40051C1602564202084F83D0084F8D6
:102560003E00002070BD00002DE9F04F85B0002531
:10257000009501950295039504460368BE48DFF86F
:10258000F48202210322DFF8F4C2802786144FF47C
:1025900080694FF0100A434554D1C36943F40023C6
:1025A000C361C36903F400230493836943F01003F8
:1025B00083618069CDE9009100F01000CDE903202E
:1025C0006946E0466046FEF72BFE7010CDE9000537
:1025D000A946694640460295FEF722FEDFF8A4822E
:1025E000A7494046C0E90015C0E90257C8F8105095
:1025F000C8F81450C8E90656FEF78AFD08B1FDF781
:10260000BEFFA04D9E48C4F8388044352830C8F835
:102610002440C5E9000AC5E90297C5F81090C5F83D
:102620001490C5E906962846FEF772FD08B1FDF73D
:10263000A6FF65630022114634206C62FEF75EFF40
:10264000342031E0DFF840824FF0040B434530D1B5
:10265000C36943F48013C361C36903F48013049313
:10266000836943F010038361836903F010030493CB
:10267000836943F0200383618069CDE9006100F044
:102680002000CDE9032069466046FEF7C9FDCDE98B
:1026900000B569467D480295FEF7C2FD002211464D
:1026A0003520FEF72BFF3520FEF71AFF05B0BDE8F9
:1026B000F08FDFF8DCC1DFF8DC81634526D1836968
:1026C00043F480438361836903F480430493836903
:1026D00043F0040383618069039200F004000490D6
:1026E0004FF40070CDE9000169464046FEF798FDC1
:1026F000CDE90095694640460295FEF791FD00221E
:1027000011462520FEF7FAFE2520CDE7DFF888C127
:10271000634553D1C36943F40033C361C36903F410
:1027200000330493836943F0040383618069CDE936
:1027300000B100F00400CDE9032069464046FEF7F1
:102740006FFD0820CDE90005694640460295FEF779
:1027500067FDDFF83081514908F188084046B946E5
:10276000C0E90015C0E90257C8F81050C8F8145065
:10277000C8E90656FEF7CCFC08B1FDF700FF414F53
:10278000C4F83880CC37C8F82440C7E90259434818
:102790003D6114307D61C7E9000AC7E90656384635
:1027A000FEF7B6FC08B1FDF7EAFE676300221146AA
:1027B00026207C62FEF7A2FE262075E7DFF8E0C047
:1027C00063457FF473AFC36943F48023C361C36976
:1027D00003F480230493836943F0080383618069D1
:1027E000CDE9009100F00800CDE90320DFF8B480C6
:1027F00069464046FEF714FD4FF40060CDE9000540
:10280000694640460295FEF70BFDDFF89C90234990
:1028100048463C39C0E90015C0E90257C9F81050D4
:10282000C9F81450C9E90656B046FEF771FC08B164
:10283000FDF7A5FE1C4EC4F838904436C9F8244074
:10284000C6E902571548356150387561C6E9000A76
:10285000C6E906583046FEF75BFC08B1FDF78FFE6F
:1028600066630022114627207462FEF747FE272088
:102870001AE70000004C0040001002400010014028
:1028800030040240C80C00200050004000140140F9
:102890000038014000080140004400406C00024044
:1028A00000480040000C0140D80D002090F83E3058
:1028B000202B0ED159B152B190F83C30012B08D0E9
:1028C000012380F83C300023036301F01BB9012091
:1028D00070470220704790F83E30202B0ED159B13E
:1028E00052B190F83C30012B08D0012380F83C30E5
:1028F0000023036301F03EB90120704702207047B6
:102900000349884202D10348FDF7D8BD7047000053
:10291000B80B002060050020704700002DE9F84347
:10292000044690F83D001F4616460D4620284CD11F
:10293000C5B1BEB194F83C00012846D0012084F80E
:102940003C004FF00008C4F84080212084F83D008E
:10295000FEF768FDA6848146E684A068B0F5805F36
:1029600003D004E00120BDE8F883206928B12E4699
:102970005FF0000584F83C800EE00026FAE7802135
:10298000204601F012F9A0B9AEB116F8010B21688A
:102990004860E08C401EE084E08C4B464FF0000223
:1029A00000970028EBD14FF04001204601F0FDF8E0
:1029B00030B10320D7E735F8020BC0F30800E6E793
:1029C000202084F83D000020CDE70220CBE77047AF
:1029D000FEE700002DE9F0410D4D002407466B880D
:1029E0002A882146204600F0F9F92E8868880021BF
:1029F0004643084600F0DCF900F01CFB3DB203E062
:102A0000284600F0B7FA641CB442F9D3BDE8F0815F
:102A1000600E00202DE9F0410027F0212C232A250B
:102A2000254C4FF4A0722B2638B1012829D04FF045
:102A3000010C02282DD0032834D0A7712180628098
:102A400023816581A6810025B4F90A0000F0D4FA3B
:102A5000002000F08FFA2088401E00B200F08AFAB1
:102A6000B4F90C0000F0C8FA002000F083FA608886
:102A7000401E00B200F07EFA2846BDE8F04100F0AA
:102A80007BB9A7712180628023816581A68103259E
:102A9000DAE784F806C02280618023816581A681FF
:102AA0000525D1E784F806C02280618023816581F5
:102AB000A6810625C8E70000600E00202DE9F04140
:102AC0000D4C074615460E46B4F90A0000F094FA7C
:102AD00038B200F04FFAB4F90C0000F08DFA30B2C1
:102AE00000F048FAB4F9080000F086FA28B2BDE810
:102AF000F04100F03FBA0000600E002010B5FF204A
:102B000000F04CFD00F00AF80122BDE810408021E1
:102B10000148FEF781BC00000010014010B5002202
:102B20004FF480410748FEF777FC3220FEF766FB42
:102B3000012240210448FEF76FFCBDE810401E2032
:102B4000FEF75CBB000C01400010014010B5FFF720
:102B5000D5FF00F006FA3220FEF750FBCF2000F040
:102B60004BFA002000F02AFAD92000F027FA302092
:102B700000F024FAED2000F03FFA642000F01EFA85
:102B8000032000F01BFA122000F018FA812000F058
:102B900015FAE82000F030FA852000F00FFA102036
:102BA00000F00CFA782000F009FACB2000F024FAAB
:102BB000392000F003FA2C2000F000FA002000F089
:102BC000FDF9342000F0FAF9022000F0F7F9F720BF
:102BD00000F012FA202000F0F1F9EA2000F00CFADF
:102BE000002000F0EBF9002000F0E8F9C02000F030
:102BF00003FA212000F0E2F9C12000F0FDF91220D3
:102C000000F0DCF9C52000F0F7F9322000F0D6F929
:102C10003C2000F0D3F9C72000F0EEF9C12000F00D
:102C2000CDF9362000F0E8F9082000F0C7F93A2085
:102C300000F0E2F9552000F0C1F9B12000F0DCF914
:102C4000002000F0BBF9182000F0B8F9B62000F021
:102C5000D3F90A2000F0B2F9A22000F0AFF9F22077
:102C600000F0CAF9002000F0A9F9262000F0C4F90C
:102C7000012000F0A3F9E02000F0BEF90F2000F0E1
:102C80009DF9202000F09AF91E2000F097F9092004
:102C900000F094F9122000F091F90B2000F08EF969
:102CA000502000F08BF9BA2000F088F9442000F0A1
:102CB00085F9092000F082F9142000F07FF9052041
:102CC00000F07CF9232000F079F9212000F076F95A
:102CD000002000F073F9E12000F08EF9002000F0F0
:102CE0006DF9192000F06AF9192000F067F9002049
:102CF00000F064F9122000F061F9072000F05EF99D
:102D00002D2000F05BF9282000F058F93F2000F05A
:102D100055F9022000F052F90A2000F04FF908207E
:102D200000F04CF9252000F049F92D2000F046F97B
:102D30000F2000F043F9112000F05EF97820FEF733
:102D40005DFA292000F058F90020FFF763FE012208
:102D500080210448FEF760FBBDE810404FF6FF708D
:102D6000FFF738BE001001400246012000E050434A
:102D7000491EC9B2FBD270470021082812D2DFE8F1
:102D800000F0110406080A0C0E1080210AE0402110
:102D900008E0C02106E0202104E0602102E0A0213B
:102DA00000E0E02141F00801362000F04BB90000BE
:102DB00070B5094C06460D46B4F90A0000F01CF93E
:102DC00030B200F0D7F8B4F90C0000F015F928B2D1
:102DD000BDE8704000F0CEB8600E00202DE9F04153
:102DE000DFF8388085180746CC180E46B8F90A0077
:102DF000641E6D1E00F000F938B200F0BBF828B276
:102E000000F0B8F8B8F90C0000F0F6F830B200F0B5
:102E1000B1F820B2BDE8F04100F0ACB8600E00207F
:102E20002DE9FF5F1D460C468A46580700D0012059
:102E300000EBD50069084843203A00F0FF09D0B202
:102E40000026DFF898B0029044E00C2D11D0102D30
:102E500014D0182D40D10298214900EBC00000BFCA
:102E600001EB80004FF00008875D38060BD50E9A05
:102E70000DE002981B4900EB4000F1E71A49029867
:102E800001EB0010EEE70F9828B918484288214658
:102E90000098FFF713FE7806070E641CBBF80200CB
:102EA000A4B2A04218D9A4EB0A00A84209D1009804
:102EB0005446401C80B20090BBF8001081420BD9F0
:102EC00006E008F1010000F0FF08B8F1080FCCD3CC
:102ED000761CF6B24E45B8D3BDE8FF9F600E0020C9
:102EE0001E5C0008BA5100082E560008160100208A
:102EF0002DE9FF4F83B00026DDE910BA1D4681465B
:102F00003446B0464FEA5B0726E0281B401EC1B29C
:102F10000A20FFF729FF0599B1FBF0F00A21B0FB69
:102F2000F1F201FB120026B9691E8C4201DA38B1B8
:102F300001263030C2B207FB049080B25B4604E049
:102F400007FB049080B25B462022CDE900A80499DB
:102F5000FFF766FF641CE4B2AC42D6D307B0BDE80D
:102F6000F08F10B5012000F047F8BDE81040322086
:102F7000FEF744B931B50F4D4FF48054002221467D
:102F80002846FEF749FA012240210B48FEF744FA91
:102F9000BDF80000C0F3072000F000FBBDF8000002
:102FA000C0B200F0FBFA21462846BDE838400122B5
:102FB000FEF732BA000C01400010014070B50C4D14
:102FC00006464FF48054002221462846FEF724FA94
:102FD000012240210748FEF71FFA304600F0DEFAD2
:102FE00021462846BDE870400122FEF715BA0000D0
:102FF000000C01400010014031B50C4D4FF48054DD
:10300000002221462846FEF707FA00224021084800
:10301000FEF702FABDF80000C0B200F0BFFA214688
:103020002846BDE838400122FEF7F6B9000C014001
:10303000001001400248B0F90800FFF7DDBF0000B2
:10304000600E002010B50C4600B2FFF7D5FFE0B2CD
:10305000BDE81040FFF7B2BF104810B50E4901603F
:103060000921416000214FF440328160C0E9031220
:103070004FF4001242610176417681760122C276D8
:1030800001774177FDF7DEFC002803D0BDE8104052
:10309000FDF775BA10BD0000006400403407002041
:1030A000214808B5416941F001014161416901F0E0
:1030B00001010091416941F0020141614069002232
:1030C00000F00200009011460C20FEF717FA0C20C9
:1030D000FEF706FA002211460D20FEF70FFA0D202A
:1030E000FEF7FEF9002211461020FEF707FA102025
:1030F000FEF7F6F9002211461120FEF7FFF9112024
:10310000FEF7EEF9002211463A20FEF7F7F93A20D1
:10311000FEF7E6F9002211463B20FEF7EFF9BDE885
:1031200008403B20FEF7DCB9001002402DE9F047D3
:1031300086B000243048009401940294039481697D
:1031400041F010018161816901F0100104918169F0
:1031500041F020018161816901F0200104918169C0
:1031600041F004018161816901F0040104918169E8
:1031700041F0080181618069DFF8808000F008007B
:103180004FF480550490002229464046FEF744F94A
:10319000DFF86C900022C0214846FEF73DF9DFF8C9
:1031A00064A02F11002239465046FEF735F93C2025
:1031B00002268DE8510069464846FEF731F8009531
:1031C00001250396CDE9015469464046FEF728F8EB
:1031D000C020CDE90005CDE9024669464846FEF724
:1031E0001FF80097CDE90154694650460395FEF754
:1031F00017F806B0BDE8F08700100240000C01404F
:1032000000100140000801400F4810B50D49016051
:103210004FF48271416000218160C1604FF40072FF
:103220000161C0E90512C1610162416281620A2146
:10323000C162FEF711FC002803D0BDE81040FDF785
:103240009EB910BD003800405C07002010B586B064
:1032500000241748009401940294039404944FF0BE
:1032600080410594016041F61F41C0E9011440F21C
:10327000F311C0E9031480218161FEF7C7FD08B195
:10328000FDF77DF94FF48050009069460848FEF73D
:10329000A5FE08B1FDF773F9049404A90448059448
:1032A000FEF776FD002801D0FDF769F906B010BDE4
:1032B000B407002010B586B000241748009401948C
:1032C00002940394049413490594016041F61F414C
:1032D000C0E901146321C0E9031480218161FEF774
:1032E00095FD08B1FDF74BF94FF480500090694609
:1032F0000948FEF773FE08B1FDF741F9049404A9EB
:1033000005480594FEF744FD002801D0FDF737F984
:1033100006B010BD00040040FC07002010B586B0C8
:1033200000241848009401940294039404941449CE
:103330000594016041F61F41C0E9011440F2E731F4
:10334000C0E9031480218161FEF760FD08B1FDF73B
:1033500016F94FF48050009069460A48FEF73EFE89
:1033600008B1FDF70CF9049404A906480594FEF78A
:103370000FFD002801D0FDF702F906B010BD0000D6
:10338000000800404408002010B586B0002418480A
:1033900000940194029403940494144905940160E8
:1033A00041F61F41C0E9011440F2E731C0E90314BE
:1033B00080218161FEF72AFD08B1FDF7E0F84FF4A6
:1033C0008050009069460A48FEF708FE08B1FDF7F4
:1033D000D6F8049404A906480594FEF7D9FC002801
:1033E00001D0FDF7CCF806B010BD0000000C004085
:1033F0008C0800201CB500240E4800940C49019450
:10340000C0E900144FF6FF71C0E902418461FEF784
:10341000FDFC08B1FDF7B3F8009469460548019436
:10342000FEF7B6FC002801D0FDF7A9F81CBD00008E
:1034300000100040D408002010B5114C0F480C219A
:1034400020604FF4E13060600020A060E060C4E9DB
:103450000401A061E0612046FFF754F808B1FDF7D0
:103460008EF82068C16841F01001C1600449C8228B
:10347000BDE81040C8390248FFF718BA004C0040B8
:10348000740B00200C4810B50A4901604FF4E1317B
:103490004160002181600C22C160C0E90412816199
:1034A000C161FFF72FF8002803D0BDE81040FDF7F9
:1034B00066B810BD00500040B80B00200C4810B595
:1034C0000A4901604FF4E1314160002181600C2222
:1034D000C160C0E904128161C161FFF713F80028DF
:1034E00003D0BDE81040FDF74AB810BD00380140D8
:1034F000FC0B002010B5114C0F480C2120604FF43C
:10350000E13060600020A060E060C4E90401A061D7
:10351000E0612046FEF7F6FF08B1FDF730F82068BD
:10352000C16841F01001C160BDE81040C8220449E3
:103530000248FFF7BBB9000000440040400C0020E7
:103540001C09002010B5114C0F480C2120604FF4CD
:10355000E13060600020A060E060C4E90401A06187
:10356000E0612046FEF7CEFF08B1FDF708F82068BD
:10357000C16841F01001C160BDE81040C822044993
:103580000248FFF793B9000000480040840C002077
:10359000E4090020FEE7FEE77047000001B582B0B5
:1035A000FF200090012301AA02A90348FEF7E8FAD0
:1035B0009DF804000EBD00005C07002038B50B46E6
:1035C000009204460022802100F008F8002804D070
:1035D000606D40F020006065032038BD2DE9F843A0
:1035E0001E46914688460446089DFDF71BFF401B7A
:1035F000351AFDF717FF074625480068C0F3CB30A2
:10360000684338E0701C37D0FDF70CFFC01BA842A0
:1036100003D215B1009860B32CE02068416821F016
:10362000E00141606068B0F5827F0BD1A068B0F521
:10363000004F02D0B0F5806F04D12068016821F0FE
:1036400040010160A06AB0F5005F09D120680168FF
:1036500021F4005101602068016841F400510160CB
:10366000012084F85100002084F850000320BDE8B8
:10367000F8830025401E00902068816838EA010028
:1036800004D000214945BDD10020F0E70121F9E730
:10369000280100207047FDF7CBBE30B58FB0282140
:1036A0006846FCF7D3FD14210AA8FCF7CFFD0121E1
:1036B0000804CDE900100024029402250491CDE90C
:1036C00007504FF4E01009906846FEF735F808B14E
:1036D00072B6FEE70F20CDE90A054FF48060CDE910
:1036E0000C4002210AA80E94FDF73AFF002801D0F1
:1036F00072B6FEE70FB030BD704700000148FEF71C
:10370000D9BC0000B40700200148FEF7D3BC00007C
:10371000FC0700200148FEF7CDBC00004408002053
:103720000148FEF7C7BC00008C0800200148FEF7E6
:10373000C1BC0000D4080020F0B502681C4B1D4D30
:103740001D4E1E4F1E4C4FF0804C984209D0A04297
:1037500007D0604505D0A84203D0B04201D0B8429E
:1037600004D122F0700E4A6842EA0E02984209D053
:10377000A04207D0604505D0A84203D0B04201D096
:10378000B84203D122F44075CA682A434D6922F039
:1037900080022A4302608A68C2620A688262984292
:1037A00001D0A04201D10969016301214161F0BD4D
:1037B000002C01400004004000080040000C0040C4
:1037C0000034014010B5846842EA032224F47F44A7
:1037D0000A432243826010BD826822F070020A43CD
:1037E00042F007018160704710B5036A046A24F053
:1037F00001040462846924F0F00444EA021423F012
:103800000A020A438461026210BD10B5036A23F004
:10381000100303628369046A23F4704343EA0232AB
:1038200024F0A00343EA01118261016210BD00008F
:103830000D4808B500680168C1F3001179B101684D
:10384000406800900848FEF729FD08480068406875
:103850000749C0F1C8000870064901200870BDE89A
:1038600008400148FEF748BD740B0020C80C00203A
:1038700014010020150100200148FEF73DBD0000A5
:10388000B80B002010B5406A0021C185C184FEF745
:1038900031FD10BD70B5446A2068406994F83D1050
:1038A000C0F3C0100025212904D118B1E5842046B9
:1038B00000F067F82068406994F83E10C0F380106B
:1038C000222904D118B1E585204600F042F8206C89
:1038D00040F0100020642046FEF70CFD70BD10B5CE
:1038E0000146406A0968096889061BD40021C18520
:1038F0000168CA6822F48072CA6001684A6922F0CD
:1039000001024A6101684A6922F040024A612021AD
:1039100080F83E10016B012904D10168CA6822F0C9
:103920001002CA60016B012902D0FEF7E9FF10BD49
:10393000818DFEF7B2FC10BD10B5406A016B012904
:1039400002D0FEF7E9FF10BD818D4908FEF7A5FC06
:1039500010BD0168CA6822F49072CA6001684A69A1
:1039600022F001024A61016B012904D10168CA6891
:1039700022F01002CA60202180F83E10002101636D
:1039800070470168CA6822F0C002CA60202180F82E
:103990003D10704708B590F83E10222901D0022052
:1039A00008BD82684FF480539A4201D1016921B168
:1039B000816A9A421BD04AB10AE00268816A526861
:1039C000C2F308020A80816A891C08E0026972B1A8
:1039D0000268526802F07F020A70816A491C8162A3
:1039E000C18D491E0904090CC18503D019E0026884
:1039F0005268F1E70168CA6822F02002CA600168D3
:103A0000CA6822F48072CA6001684A6922F0010221
:103A10004A61202180F83E10016B012903D0FEF796
:103A20006FFF002008BD002101630168CA6822F011
:103A30001002CA6001680A68D20602D50A6849689D
:103A40000091818DFEF729FCEBE7000070B504467C
:103A500000680169E26821F4405111430161216964
:103A6000A0680843616908432168CA6841F20C6391
:103A70009A430243CA6020684169A26921F44071F7
:103A8000114341611E492068884202D1FDF70EFEB4
:103A900001E0FDF7FBFD00EBC00101EB00126068E7
:103AA00064218000B2FBF0F3B3FBF1F36FF0180672
:103AB0007343B2FBF0F5B2FBF0F605EB830532235E
:103AC00003EB0515B5FBF1F5B6FBF1F605F0F005D6
:103AD00005EB0615B2FBF0F6B2FBF0F0B0FBF1F02F
:103AE0006FF01802504306EB800003EB0010B0FBB0
:103AF000F1F0216800F00F002844886070BD0000DC
:103B00000038014038B5816282850025134604469D
:103B10000564222084F83E00A26B13489062A26BD9
:103B20001248D062A26B12481063A06B0A4645632C
:103B30002168A06B091DFDF729FB20680168416819
:103B4000009184F83C50C16841F48071C1602068E4
:103B5000416941F0010141612068416941F0400142
:103B60004161002038BD0000DF3800083939000805
:103B70009538000881628285C28500210164222275
:103B800080F83E2080F83C100168CA6842F48072D8
:103B9000CA6001684A6942F001024A610068C1686E
:103BA00041F02001C160002070472DE9F0419846A6
:103BB00017460E460446069D1DE0681C1BD02DB11D
:103BC000FDF730FCA0EB0800A84214D92068C168BA
:103BD00021F4D071C1602068416921F00101416187
:103BE000202084F83D0084F83E00002084F83C004A
:103BF0000320BDE8F0812068006836EA000004D0A8
:103C00000020B842D9D00020F3E70120F9E70000F6
:103C10000148FEF771BB0000FC0B00200D4808B501
:103C200000680168C1F3001179B101684068009033
:103C30000848FEF733FB0848006840680749C0F1B0
:103C4000C8000870064901200870BDE80840014816
:103C5000FEF752BB400C0020500D00201001002048
:103C6000110100200D4808B500680168C1F300117A
:103C700079B10168406800900848FEF70FFB0848DA
:103C8000006840680749C0F1C80008700649012073
:103C90000870BDE808400148FEF72EBB840C0020E8
:103CA000D80D002012010020130100200148FCF76C
:103CB000CBBD000034070020FEE70907090E0028ED
:103CC00004DB00F1E02080F80014704700F00F00E2
:103CD00000F1E02080F8141D704700000D4A52F8F2
:103CE000211001224160052901DB826002E0836826
:103CF000012B03D1022901DCC26005E0C168012962
:103D000006D18168012903D10021C0E90312816035
:103D1000704700002002002000B501210F48FFF786
:103D2000DDFF0E4803213830FFF7D8FF0B49086943
:103D3000012810D101F13802106901280BD1A1F13D
:103D400038000368A430012B036805D05B1E0360B4
:103D500000200861106100BD5B1CF8E79C01002099
:103D600000B500210F48FFF7B9FF0E480221383097
:103D7000FFF7B4FF0B490869012810D101F138029F
:103D8000106901280BD1A1F11C004368A430012B5C
:103D9000436805D05B1E436000200861106100BDD0
:103DA0005B1CF8E780010020F0B41A4B03201A4C8A
:103DB000D86003F13800D0E90010084400EBD0725D
:103DC000FA2003F1280100EB6200088048806FF0C0
:103DD000F90000EB62008880C880002001F108052E
:103DE000C3F8040031F8102002F5FA4212B225F8A7
:103DF0001020D61702EB166604F83020320A04EBC6
:103E0000C006401C72700428ECDB5860F0BC00F067
:103E1000D9BA0000100000202C010020F0B41A4B89
:103E200003201A4CD86003F13800D0E90010084490
:103E3000C11700EB9172322003F1280100EBA200C0
:103E4000088048806FF0310000EBA2008880C880B5
:103E5000002001F10805586031F8102002F5FA42FF
:103E600012B225F81020D61702EB166604F830209F
:103E7000320A04EBC006401C72700428ECDB586068
:103E8000F0BC00F09FBA0000100000202C010020C0
:103E90001A4810B501881430012913D0022929D0FD
:103EA000032929D1807801280ED0022815D00328B3
:103EB00022D10C2212491348FEF70DFDFF230322E5
:103EC00011A112E00078EEE70C220D490D48FEF733
:103ED00002FDFF2303220DA107E00C220849094837
:103EE000FEF7F9FCFF23032209A1BDE810400548B5
:103EF000FEF714BD4078D6E710BD0000100000208A
:103F000060050020B80B002033333300313131001D
:103F1000323232001CB5FDF793FAFFF7BEFBFFF714
:103F2000BFF8FFF703F9FFF7E5FAFFF7C7FAFFF766
:103F300009FBFFF791F8FFF767F9FFF77DFAFFF745
:103F4000A1FAFFF783F9FFF7B5F9FFF7E7F9FFF7F4
:103F50001BFAFFF74FFAFEF7F9FD00F0ADF900F09C
:103F6000BDFCFCF7D7F9A848FDF7EAFFA748FDF725
:103F7000E7FF4FF000081025CDE900580323424623
:103F800041464046FEF7B4FFA14FA7F1BC0401E053
:103F900000F026FEA0680828FADB1BE001DA00F03A
:103FA0006BFBCDE9005846460323C8211420226844
:103FB000FEF79EFFCDE900560323C8215A20626810
:103FC000FEF796FFCDE900560323C821A020A26882
:103FD000FEF78EFFD4E9000108443C28DEDB0CE04C
:103FE0000F2904DA0F2802DA00F00CFB05E01E2985
:103FF00003DD1E2801DDFFF711FF7968A1F10F0035
:10400000102804D3F868A0F10F02102AE8D2DFF8D4
:1040100004924E46D6E90F01CDE900017C48D9F85B
:1040200038301C3807C800F0F9F800F0C7FB00F082
:10403000C9F94FF47A70FDF7E1F8D6E91201383684
:10404000CDE9000196E80F0000F0E8F810E00F2934
:104050000CDA0F2804DA00F089FD38680F2805DA39
:10406000B8681E2802DD00F025FE01E000F07EFDAC
:104070003968A1F10F00102804D3B868A0F10F022D
:10408000102AE4D200F09AFB00F09CF9C820FDF75A
:10409000B5F808E00F2904DA1E2802DD00F00AFE58
:1040A00001E000F063FD3968A1F10F0010280ED384
:1040B000B868A0F10F02102AECD208E0282904DA2F
:1040C000502802DD00F09EFA01E0FFF7A7FE7968B4
:1040D000A1F12800292804D3F868A0F12802292A90
:1040E000ECD24FF49670FDF789F84A48464680387E
:1040F0000121C0F8108000F14C084748C8F80010B2
:10410000FDF71EFF06E000210322084600F020FB19
:1041100000F058F9D8F800000028F4D13E48FDF727
:1041200045FF00F04BFB4846D0E91512CDE90012DF
:10413000483090E80E00D9F8440000F06FF810E025
:104140000F290CDA0F2804DA00F010FD38680F2868
:1041500005DAB8681E2802DD00F0ACFD01E000F0D1
:1041600005FD3968A1F10F00102804D3B868A0F14B
:104170000F02102AE4D200F021FB00F023F9C8203E
:10418000FDF73CF808E00F2904DA1E2802DD00F0F4
:1041900091FD01E000F0EAFC3968A1F10F00102860
:1041A0000ED3B868A0F10F02102AECD208E028293B
:1041B00004DA502802DD00F025FA01E0FFF72EFEB8
:1041C0007968A1F12800292804D3F868A0F1280211
:1041D000292AECD2CDE900560323C82114202268F5
:1041E000FEF786FECDE900560323C8215A206268F7
:1041F000FEF77EFECDE900560323C821A020A26869
:10420000FEF776FEE6E70000B4070020FC0700207A
:104210003002002090000020440800202DE9F05FCB
:1042200004460A9F0D46DFF88C90781B1E464FF01F
:10423000010A4FF0020B09F1A40800280DDDC9F8AE
:1042400004A007E0D8F8045000F0A2F900F0BAF892
:10425000FFF786FDBD42F5D10CE0C9F804B007E0D8
:10426000D8F80450FFF7A0FD00F0ACF8FFF778FD98
:10427000BD42F5D1301B00280EDD4546C9F800A02F
:1042800006E02C6800F036FC00F09CF8FFF744FDD7
:10429000B442F6D1BDE8F09F4546C9F800B006E04B
:1042A0002C6800F0CBFC00F08DF8FFF735FDB44230
:1042B000F6D1EFE7640100207CB5134C134D144E8A
:1042C000009400232A4631461248019400F05AF91E
:1042D0001048009400232A4631463430019400F0FF
:1042E00051F90C48009400232A4631466830019465
:1042F00000F048F90748009400232A4631469C30D4
:10430000019400F03FF97CBD0000FA44CDCCCC3DD7
:104310003333B33F700E00202DE9F041254CB4F942
:10432000000000F08BFD244D0646B5F9000000F0BA
:1043300085FD01463246214800F08CF800F062FD10
:104340001F4E3080B4F9020000F078FD0746B5F941
:10435000020000F073FD014618483A46343000F080
:1043600079F800F04FFD7080B4F9040000F066FDAC
:104370000746B5F9040000F061FD01460F483A46D2
:10438000683000F067F800F03DFDB080B4F9060039
:1043900000F054FD0446B5F9060000F04FFD01465B
:1043A000064822469C3000F055F800F02BFDF080C6
:1043B000BDE8F081EC00002038000020700E0020E5
:1043C000F400002038B51D4C04202146A0600020D8
:1043D000E060082020611A4860606B46194A01F1CC
:1043E0001800FCF7E0F80020FCF708FF1648154A13
:1043F000214660606B46083201F11800FCF7D3F8E3
:104400000020FCF7FBFE11480E4A214660606B4617
:10441000103201F11800FCF7C6F80020FCF7EEFEA0
:104420000B48084A214660606B46183201F11800BB
:10443000FCF7B9F80020FCF7E1FE38BD1C070020AE
:10444000100021002C010020100022001000230089
:10445000100024002DE9F04104460846C4E9050295
:10446000E5691146256200F033FE0646E0613146FB
:10447000206800F02FFD60623146606800F02AFD80
:10448000A16A00F051FC0746A0622946304600F0C0
:104490001FFEA16800F01EFDE062E068394680F072
:1044A000004000F0E3FD03D8E06880F0004107E041
:1044B000E168A06A00F0DAFD01D8E16800E0A16AD5
:1044C000A162606A00F030FCE16A00F02DFC014658
:1044D0002063206980F0004000F0C8FD03D8206907
:1044E00080F0004007E02169206B00F0BFFD01D89B
:1044F000206900E0206B2063BDE8F0812DE9F041E8
:1045000004460846C4E90512E1692162884611465D
:1045100000F0DEFD0546E0612946206800F0DAFC87
:10452000074660622946606800F0D4FCA16A00F08A
:10453000FBFB0646A0624146284600F0C9FDA16883
:1045400000F0C8FC0546E0623146384600F0ECFB5E
:10455000294600F0E9FB01462063206980F0004015
:1045600000F084FD03D8206980F0004007E0216955
:10457000206B00F07BFD01D8206900E0206B2063F8
:10458000BDE8F08130B5DDE9034580E83E0030BD8F
:10459000F0B41A4B03201A4CD86003F13800D0E96C
:1045A0000010084400EBD0726FF0F90003F128010D
:1045B00000EB620008804880FA2000EB62008880EF
:1045C000C880002001F10805C3F8040031F810206C
:1045D00002F5FA4212B225F81020D61702EB166641
:1045E00004F83020320A04EBC006401C7270042824
:1045F000ECDB5860F0BCFFF7E5BE000010000020C7
:104600002C010020F0B41A4B03201A4CD86003F19F
:104610003800D0E900100844C11700EB91726FF028
:10462000630003F1280100EBA200088048806420A9
:1046300000EBA2008880C880002001F108055860C6
:1046400031F8102002F5FA4212B225F81020D617E0
:1046500002EB166604F83020320A04EBC006401C58
:1046600072700428ECDB5860F0BCFFF7ABBE0000B2
:10467000100000202C01002010B500226FF0F9017D
:10468000104600F02BF8BDE81040FFF79BBE00007D
:10469000024600204FEA000142FA01F3DB0700D096
:1046A000401C491C0829F7DB7047000070B50C1A44
:1046B000182302FB0345084C25800D1802FB035606
:1046C000401A02FB03006680A08002EB4200C5EBAB
:1046D000C000E08070BD0000380000202DE9F041EE
:1046E000144B1860144B00B21960144B09B21A60D5
:1046F00012B2FFF7DBFFFFF70FFE114A0020114D4A
:10470000114C124BC2F8000035F8101001F5FA41B7
:1047100009B224F81010CE1701EB166603F830101A
:10472000310A03EBC006401C717010600428EBDBFB
:10473000BDE8F081000000200400002008000020F7
:1047400014000020F4000020400000202C01002074
:10475000F0B5134B1860134B00B21960124B09B23D
:104760001A6012B2FFF7A2FF104A0020104D114C40
:10477000114B106035F8101001F5FA4109B224F818
:104780001010CE1701EB166603F83010310A03EB58
:10479000C006401C717010600428EBDBF0BD000007
:1047A0000000002004000020080000201400002069
:1047B00038000020400000202C0100202DE9F041AD
:1047C000002211461046FFF771FF0F4A00200F4DDF
:1047D0000F4C104BC2F8000035F8101001F5FA41EB
:1047E00009B224F81010CE1701EB166603F830104A
:1047F000310A03EBC006401C717010600428EBDB2B
:10480000BDE8F041FFF7DEBD1400002038000020B5
:10481000400000202C01002070B52D480021827E30
:10482000202A05D1C27E8176202A1AD0303AC2765B
:10483000837E027F03EBC30404EB0313C07E02EB11
:10484000830300EB80006FF02F0202EB400018445E
:10485000204B801E186003F51770847E202C02D038
:1048600007E0C176E4E7C47E8176202C16D0303C88
:10487000C476857E047FC07E05EBC50606EB051574
:1048800000EB800004EB850402EB40002044001F95
:1048900058601148847E202C02D007E0C176E8E7FA
:1048A000C47E8176202C11D0303CC476847E017F7A
:1048B000C07E04EBC40505EB041400EB800001EBA3
:1048C000840102EB40000844986070BDC176EDE7BA
:1048D0000803002074010020980400202DE9FC4109
:1048E000144C154E650300942B46002231461348A4
:1048F0000194FFF747FE124F104800943B460022F8
:10490000314634300194FFF73DFE0C4800942B46AD
:104910000022314668300194FFF734FE07480094C6
:104920003B46002231469C300194FFF72BFEBDE848
:10493000FC8100000000FA44000040C0280600206E
:10494000666606402DE9F84F5F4A8446A2F57E74FC
:1049500002F134000090D4E900035C495C4E5D4DE7
:10496000E76802F1680A02F19C0B4FF04049BCF184
:10497000070F6ED2DFE80CF0A6041A3B586E8700D2
:10498000182800DD5449116000F058FA02463146FB
:104990004D48FFF7B3FD00F035FA00B22860A0687B
:1049A00000F04CFA02463146504685E0182B01DCF7
:1049B000182F01DD494800E049485063C2F89C00C7
:1049C000DC2B7FDCDC2F7DDC184600F037FA02465A
:1049D00031460098FFF792FD00F014FA00B228600B
:1049E000E06800F02BFA02463146584664E03D4943
:1049F0001828896801DC182901DD3B4B00E03B4B9E
:104A000013609366DC285DDCDC295BDC084600F083
:104A100015FA024631465046FFF770FD00F0F2F9F4
:104A200000B22860206828E0182F02DDC2F89C90B0
:104A300001E0C2F89C10384600F000FA0246314608
:104A40005846FFF75BFD00F0DDF900B228606068B2
:104A50002DE037E0182802DDC2F8009000E0116078
:104A600000F0ECF9024631461748FFF747FD00F029
:104A7000C9F91F4D00B22860A06800F0DFF90246B6
:104A80003146114818E0182B02DDC2F8349000E0DE
:104A90005163184600F0D2F9024631460098FFF7FC
:104AA0002DFD00F0AFF9124D00B22860E06800F073
:104AB000C5F9024631460098FFF720FD00F0A2F943
:104AC00000B26860BDE8F88F28060020000040C0F2
:104AD0000000C041480000200000C0BF9A9919C0E2
:104AE000000060C030020020000020C0666686C062
:104AF000400F0020F0B41A4B02204FF49674D86097
:104B000003F13800D0E90010084400EBD0721548DA
:104B100003F1280100EB620004EB620208804A8086
:104B20008A80C8800020104C01F10805C3F80400F9
:104B300031F8102002F5FA4212B225F81020D617EB
:104B400002EB166604F83020320A04EBC006401C63
:104B500072700428ECDB5860F0BCFFF733BC000037
:104B600010000020D4FEFFFF2C010020F0B41A4BEF
:104B700002203224D86003F13800D0E90010084444
:104B8000C11700EB91726FF0310000EBA20003F14E
:104B9000280104EBA20208804A808A80C880002095
:104BA0000E4C01F10805586031F8102002F5FA4268
:104BB00012B225F81020D61702EB166604F8302042
:104BC000320A04EBC006401C72700428ECDB58600B
:104BD000F0BCFFF7F7BB0000100000202C01002004
:104BE000F0B4144B022003F12801D8606FF0630089
:104BF000088064224A808A80C88000200E4C01F11F
:104C00000805586031F8102002F5FA4212B225F872
:104C10001020D61702EB166604F83020320A04EB97
:104C2000C006401C72700428ECDB5860F0BCFFF733
:104C3000C9BB0000100000202C010020F0B41A4B6A
:104C400002201A4CD86003F13800D0E90010084463
:104C500000EBD0724FF4967000EB620003F1280174
:104C600004EB620208804A808A80C8800020104CD1
:104C700001F10805C3F8040031F8102002F5FA42EA
:104C800012B225F81020D61702EB166604F8302071
:104C9000320A04EBC006401C72700428ECDB58603A
:104CA000F0BCFFF78FBB000010000020D4FEFFFF18
:104CB0002C010020F0B41A4B02206FF03104D860B0
:104CC00003F13800D0E900100844C11700EB9172DD
:104CD000322000EBA20003F1280104EBA2020880BD
:104CE0004A808A80C88000200E4C01F10805586077
:104CF00031F8102002F5FA4212B225F81020D6172A
:104D000002EB166604F83020320A04EBC006401CA1
:104D100072700428ECDB5860F0BCFFF753BB000056
:104D2000100000202C01002090EA010F48BF81F004
:104D3000004100F1D481421A3CBF801A89184FEA21
:104D4000D0524FF07F4C1CEA410FA2EBD15318BF59
:104D50009CEA026F00F03B804FF0004C4CEA0020D0
:104D60004CEA012121FA03FC10EB0C0C1ED202F1DB
:104D7000FF325FEA1C2040EBC25038BF70471CF086
:104D80007F0F4FEA400C18BFBCF17F4F38BF704710
:104D9000C3F12003994008BF20F00100BCF17F4F10
:104DA00038BF7047A0F1C04000F05BB94FEA3C004B
:104DB000000A40EBC25028BF1CF0FF0F4FEA400C26
:104DC000E6D018BFBCF17F4F38BF7047EAE79CEAD6
:104DD000026F05D010EA5C0F08BF00F0004070477A
:104DE00010B500F0F8F800BF64FBBE3E401058BF9D
:104DF000C0F14040491058BFC1F140418142EFF33A
:104E00000080704741000B0ED3F19E0208D950F488
:104E100000034FEA032323FA02F048BF40427047E1
:104E200010B500F0D8F800BF4992248000207047E8
:104E30006FF0004282EA20007047000010F000414D
:104E400048BF4042B0FA80F310FA03F2C3F19D0369
:104E50000BD051EAC35101EB1220530638BF704703
:104E600000F1010008BF20F00100704750EA010C7A
:104E700000F113801CF5000F58BFBCF5000F01D4E2
:104E80008842704707D710F5000F58BF11F5000F83
:104E900015D488427047894270471CF5000F04D52D
:104EA000BCF5000FF7D5814270474FF0807C1CEBBA
:104EB000400F38BF1CEB410F01D28142704710B543
:104EC00000F089F8922449004FF000504FF08051D3
:104ED000FFF78CBF4FF47F0C1CEAD0121EBF1CEAF8
:104EE000D11392EA0C0F93EA0C0F00F0478090EA7E
:104EF000010F48BF42F480724FF0004C4CEA002092
:104F00004CEA012102EB0302A0FB0113A2F500020F
:104F1000002918BF43F001035B0028BF4FEA3303A9
:104F200042EB22425FEA132C4CEBC2502EBFBCEB8B
:104F3000436FB2F57C0F70474FEA036CBCF1004F32
:104F400008BF20F00100B2F57C0F38BF70470BD5C9
:104F500082F0FF0212F5803FC8BF704700F1C040E9
:104F6000D8BF00F00040704700F5000C5FEA4C0C21
:104F700048BF7047B0F1C04000F073B890EA010F2D
:104F80000CEAD11348BF42F48072624538BF6345D2
:104F900004D280EA010000F00040704710B500F034
:104FA0001AF800BF8900013E00F007B800F009B808
:104FB0005FEA410C5FEA1C6C08D080EA010000F057
:104FC00050B85FEA400C5FEA1C6CF6D14FF000402D
:104FD000A0F5800070470EF1020E2EF0030E5EF871
:104FE000044B244204D44FEA4102B2F17F4F11D85E
:104FF0004FEA4003B3F17F4F0CD80ED14FEAD07C7B
:10500000B2F17F4F0CEB4C0C0CF1020C08BF4CEBD7
:10501000D17C04E04FF0080C01E04FEAD17C0CEBAE
:105020004C0324FA03F404F00704B4F1040C06D290
:105030000EEB840CBDE810404CF0010C6047DFE83B
:105040000CF0070802024FF00040A0F5800010BDF0
:105050000846420018BFD2F1807288BF00F00040BD
:1050600010BDFF2141EAD050C005704751EA000C45
:1050700000F113801CF5000F58BFBCF5000F01D4E0
:105080008142704707D711F5000F58BF10F5000F88
:1050900015D481427047894270471CF5000F04D532
:1050A000BCF5000FF7D5884270474FF0807C1CEBB1
:1050B000410F38BF1CEB400F01D28842704780EA95
:1050C000010081EA000180EA0100FFF7F8BE00005C
:1050D00090EA010F48BF81F000413FF52CAE421A23
:1050E00004D882F00042A0EB020011444FEAD052F3
:1050F0004FF07F4C1CEA410FA2EBD15318BF9CEA42
:10510000026F4AD04FF0004C4CEA00204CEA0121DB
:1051100021FA03FCB0EB0C0C0FD412F0FE0F36D0CA
:105120005FEA4C001DD5001240EBC25038BF7047FB
:105130001CF03F0F18BF70470BE0A2F101025FEABD
:105140001C2040EBC25038BF70471CF07F0F18BFC7
:105150007047C3F12003994014BF401E20F00100A6
:10516000704780084FEA122308BF7047B0FA80FCEE
:10517000A2EB0C02CCF1280C60FA0CF093EA122F8F
:1051800004BF00EBC25070474FEAC3707047130A68
:105190005FEADC1008BF7047F6E79CEA026F04D0B4
:1051A00010EA5C0F08BF0020704710B5FFF713FF2F
:1051B00040DFF63E81F00040704700000000000034
:1051C000000000000000000000003F400000000060
:1051D00000000000300040003000400000000900E6
:1051E0000BC03D000BC03D00090018C024407FE00B
:1051F000224031800000180024C01B000D80324086
:10520000018003801C4027401C80074000401000A4
:10521000600000000000000000000000000000002E
:105220001F80204040200000402020401F800000C0
:105230000000090006001F800600090000000400AD
:1052400004003F8004000400000000100060000023
:10525000000000000000040004000400040004003A
:1052600000000000004000000000000000000020DE
:1052700001C006003800400000001F802040204090
:1052800020401F800000000010403FC00040000090
:10529000000018C021402240244018400000108027
:1052A0002040244024401B80000002000D0011001B
:1052B0003FC0014000003C80244024402440238023
:1052C00000001F8024402440344003800000300050
:1052D000200027C03800200000001B80244024400C
:1052E00024401B8000001C0022C0224022401F805E
:1052F0000000000000000840000000000000000066
:1053000000000460000000000000000004000A002B
:10531000110020804040090009000900090009002F
:10532000000000004040208011000A000400180026
:10533000200023402400180000001F802040274048
:1053400029401F400000004007C039000F0001C085
:10535000004020403FC0244024401B8000001F80AC
:105360002040204020403080000020403FC02040AE
:1053700020401F80000020403FC024402E4030C00D
:10538000000020403FC024402E00300000000F00ED
:105390001080204022403380020020403FC00400A3
:1053A00004003FC02040204020403FC0204020401B
:1053B00000000060202020203FC02000200020406E
:1053C0003FC024400B0030C0204020403FC0204060
:1053D0000040004000C03FC03C0003C03C003FC054
:1053E000000020403FC00C4023003FC020001F8031
:1053F0002040204020401F80000020403FC024402B
:105400002400180000001F802140214020E01FA040
:10541000000020403FC02440260019C0004018C0B2
:1054200024402440224031800000300020403FC012
:1054300020403000000020003F80004000403F80BE
:10544000200020003E0001C0070038002000380086
:1054500007C03C0007C038000000204039C00600EB
:1054600039C0204000002000384007C038402000EC
:105470000000304021C02640384020C0000000001D
:1054800000007FE0402040200000000070000C0081
:105490000380004000000000402040207FE000002A
:1054A000000000002000400020000000000000106C
:1054B000001000100010001000100000000040005C
:1054C000000000000000000002800540054003C00D
:1054D000004020003FC00440044003800000000062
:1054E00003800440044006400000000003800440A4
:1054F00024403FC0004000000380054005400340B9
:105500000000000004401FC0244024402000000090
:1055100002E0055005500650042020403FC00440E2
:10552000040003C000400000044027C00040000009
:10553000000000100010041027E0000000002040D0
:105540003FC00140070004C00440204020403FC04D
:1055500000400040000007C0040007C0040003C072
:105560000000044007C00440040003C000400000E5
:1055700003800440044003800000041007F004503E
:10558000044003800000000003800440045007F042
:105590000010044007C002400400040000000000A6
:1055A00006400540054004C00000000004001F80C4
:1055B000044000400000040007800040044007C091
:1055C00000400400070004C001800600040006003B
:1055D00001C0070001C006000000044006C0010031
:1055E00006C0044000000410071004E0018006001B
:1055F00004000000044005C0064004400000000014
:10560000000004007BE040200000000000000000DB
:10561000FFF000000000000040207BE004000000DC
:1056200000004000800040002000200040000000FA
:10563000000000000000000000000000000000006A
:10564000000000001FCC000C000000000000000063
:1056500008003000600008003000600000000220F8
:1056600003FC1E20022003FC1E200220000000007C
:105670000E1811043FFF10840C78000000000F008A
:1056800010840F3800C00778188400780000007874
:105690000F8410C411240E9800E400840008080050
:1056A0006800700000000000000000000000000022
:1056B0000000000007E0181820044002000000006D
:1056C00040022004181807E000000000000002401B
:1056D000024001800FF00180024002400000008083
:1056E000008000800FF80080008000800000000132
:1056F000000D000E0000000000000000000000008F
:105700000080008000800080008000800080000019
:10571000000C000C00000000000000000000000071
:10572000000600180060018006001800200000003C
:1057300007F0080810041004080807F00000000033
:10574000080408041FFC000400040000000000001E
:105750000E0C10141024104411840E0C00000000D4
:105760000C1810041104110412880C7000000000C1
:1057700000E00320042408241FFC00240000000093
:105780001F9810841104110410881070000000008C
:1057900007F0088811041104188800700000000048
:1057A0001C00100010FC13001C0010000000000082
:1057B0000E3811441084108411440E38000000008B
:1057C0000700088C10441044088807F0000000000F
:1057D00000000000030C030C0000000000000000AB
:1057E00000000001010600000000000000000000B1
:1057F000008001400220041008081004000002206C
:1058000002200220022002200220022000000000CC
:10581000100408080410022001400080000000006D
:105820000E001200100C106C10800F00000003E03E
:105830000C1813E4142417C4082807D0000000042F
:10584000003C03C41C40074000E4001C000410049A
:105850001FFC1104110411040E880070000003E005
:105860000C1810041004100410081C100000100480
:105870001FFC100410041004080807F000001004B6
:105880001FFC1104110417C41004081800001004B0
:105890001FFC1104110017C010000800000003E0F5
:1058A0000C181004100410441C7800400000100470
:1058B0001FFC10840080008010841FFC1004000076
:1058C000100410041FFC100410040000000000036A
:1058D0000001100110011FFE100010000000100454
:1058E0001FFC110403801464181C10040000100431
:1058F0001FFC1004000400040004000C000010044D
:105900001FFC1F0000FC1F001FFC100400001004FF
:105910001FFC0C04030000E010181FFC100007F02F
:105920000808100410041004080807F00000100410
:105930001FFC10841080108010800F00000007F002
:10594000081810241024101C080A07F20000100484
:105950001FFC1104110011C011300E0C00040000D6
:105960000E1C11041084108410441C380000180010
:10597000100010041FFC100410001800000010009C
:105980001FF810040004000410041FF81000100099
:105990001E0011E0001C007013801C0010001FC0CE
:1059A000103C00E01F0000E0103C1FC0000010048D
:1059B000180C163401C001C01634180C1004100065
:1059C0001C00130400FC13041C0010000000080459
:1059D000101C1064108413041C0410180000000034
:1059E000000000007FFE4002400240020000000074
:1059F00030000C0003800060001C00030000000069
:105A00004002400240027FFE000000000000000053
:105A10000000200040004000400020000000000185
:105A2000000100010001000100010001000100006F
:105A300040004000200000000000000000000000C6
:105A40000098012401440144014400FC00041000BA
:105A50001FFC0088010401040088007000000000A1
:105A600000700088010401040104008800000000A7
:105A7000007000880104010411081FFC00040000EC
:105A800000F8014401440144014400C80000000042
:105A9000010401040FFC110411041100180000009E
:105AA00000D601290129012901C9010600001004BD
:105AB0001FFC008401000100010400FC0004000040
:105AC0000104190419FC0004000400000000000097
:105AD000000300010101190119FE0000000010047B
